{
  "_format": "hh-sol-artifact-1",
  "contractName": "Ecoin",
  "sourceName": "contracts/Ecoin.sol",
  "abi": [
    {
      "inputs": [],
      "stateMutability": "nonpayable",
      "type": "constructor"
    },
    {
      "inputs": [],
      "name": "AccessControlBadConfirmation",
      "type": "error"
    },
    {
      "inputs": [
        {
          "internalType": "address",
          "name": "account",
          "type": "address"
        },
        {
          "internalType": "bytes32",
          "name": "neededRole",
          "type": "bytes32"
        }
      ],
      "name": "AccessControlUnauthorizedAccount",
      "type": "error"
    },
    {
      "inputs": [
        {
          "internalType": "address",
          "name": "spender",
          "type": "address"
        },
        {
          "internalType": "uint256",
          "name": "allowance",
          "type": "uint256"
        },
        {
          "internalType": "uint256",
          "name": "needed",
          "type": "uint256"
        }
      ],
      "name": "ERC20InsufficientAllowance",
      "type": "error"
    },
    {
      "inputs": [
        {
          "internalType": "address",
          "name": "sender",
          "type": "address"
        },
        {
          "internalType": "uint256",
          "name": "balance",
          "type": "uint256"
        },
        {
          "internalType": "uint256",
          "name": "needed",
          "type": "uint256"
        }
      ],
      "name": "ERC20InsufficientBalance",
      "type": "error"
    },
    {
      "inputs": [
        {
          "internalType": "address",
          "name": "approver",
          "type": "address"
        }
      ],
      "name": "ERC20InvalidApprover",
      "type": "error"
    },
    {
      "inputs": [
        {
          "internalType": "address",
          "name": "receiver",
          "type": "address"
        }
      ],
      "name": "ERC20InvalidReceiver",
      "type": "error"
    },
    {
      "inputs": [
        {
          "internalType": "address",
          "name": "sender",
          "type": "address"
        }
      ],
      "name": "ERC20InvalidSender",
      "type": "error"
    },
    {
      "inputs": [
        {
          "internalType": "address",
          "name": "spender",
          "type": "address"
        }
      ],
      "name": "ERC20InvalidSpender",
      "type": "error"
    },
    {
      "anonymous": false,
      "inputs": [
        {
          "indexed": true,
          "internalType": "address",
          "name": "owner",
          "type": "address"
        },
        {
          "indexed": true,
          "internalType": "address",
          "name": "spender",
          "type": "address"
        },
        {
          "indexed": false,
          "internalType": "uint256",
          "name": "value",
          "type": "uint256"
        }
      ],
      "name": "Approval",
      "type": "event"
    },
    {
      "anonymous": false,
      "inputs": [
        {
          "indexed": true,
          "internalType": "bytes32",
          "name": "role",
          "type": "bytes32"
        },
        {
          "indexed": true,
          "internalType": "bytes32",
          "name": "previousAdminRole",
          "type": "bytes32"
        },
        {
          "indexed": true,
          "internalType": "bytes32",
          "name": "newAdminRole",
          "type": "bytes32"
        }
      ],
      "name": "RoleAdminChanged",
      "type": "event"
    },
    {
      "anonymous": false,
      "inputs": [
        {
          "indexed": true,
          "internalType": "bytes32",
          "name": "role",
          "type": "bytes32"
        },
        {
          "indexed": true,
          "internalType": "address",
          "name": "account",
          "type": "address"
        },
        {
          "indexed": true,
          "internalType": "address",
          "name": "sender",
          "type": "address"
        }
      ],
      "name": "RoleGranted",
      "type": "event"
    },
    {
      "anonymous": false,
      "inputs": [
        {
          "indexed": true,
          "internalType": "bytes32",
          "name": "role",
          "type": "bytes32"
        },
        {
          "indexed": true,
          "internalType": "address",
          "name": "account",
          "type": "address"
        },
        {
          "indexed": true,
          "internalType": "address",
          "name": "sender",
          "type": "address"
        }
      ],
      "name": "RoleRevoked",
      "type": "event"
    },
    {
      "anonymous": false,
      "inputs": [
        {
          "indexed": true,
          "internalType": "address",
          "name": "from",
          "type": "address"
        },
        {
          "indexed": true,
          "internalType": "address",
          "name": "to",
          "type": "address"
        },
        {
          "indexed": false,
          "internalType": "uint256",
          "name": "value",
          "type": "uint256"
        }
      ],
      "name": "Transfer",
      "type": "event"
    },
    {
      "inputs": [],
      "name": "ADMIN",
      "outputs": [
        {
          "internalType": "bytes32",
          "name": "",
          "type": "bytes32"
        }
      ],
      "stateMutability": "view",
      "type": "function"
    },
    {
      "inputs": [],
      "name": "DEFAULT_ADMIN_ROLE",
      "outputs": [
        {
          "internalType": "bytes32",
          "name": "",
          "type": "bytes32"
        }
      ],
      "stateMutability": "view",
      "type": "function"
    },
    {
      "inputs": [],
      "name": "MINTER",
      "outputs": [
        {
          "internalType": "bytes32",
          "name": "",
          "type": "bytes32"
        }
      ],
      "stateMutability": "view",
      "type": "function"
    },
    {
      "inputs": [],
      "name": "TOTAL_SUPPLY",
      "outputs": [
        {
          "internalType": "uint128",
          "name": "",
          "type": "uint128"
        }
      ],
      "stateMutability": "view",
      "type": "function"
    },
    {
      "inputs": [
        {
          "internalType": "address",
          "name": "owner",
          "type": "address"
        },
        {
          "internalType": "address",
          "name": "spender",
          "type": "address"
        }
      ],
      "name": "allowance",
      "outputs": [
        {
          "internalType": "uint256",
          "name": "",
          "type": "uint256"
        }
      ],
      "stateMutability": "view",
      "type": "function"
    },
    {
      "inputs": [
        {
          "internalType": "address",
          "name": "spender",
          "type": "address"
        },
        {
          "internalType": "uint256",
          "name": "value",
          "type": "uint256"
        }
      ],
      "name": "approve",
      "outputs": [
        {
          "internalType": "bool",
          "name": "",
          "type": "bool"
        }
      ],
      "stateMutability": "nonpayable",
      "type": "function"
    },
    {
      "inputs": [
        {
          "internalType": "address",
          "name": "account",
          "type": "address"
        }
      ],
      "name": "balanceOf",
      "outputs": [
        {
          "internalType": "uint256",
          "name": "",
          "type": "uint256"
        }
      ],
      "stateMutability": "view",
      "type": "function"
    },
    {
      "inputs": [],
      "name": "decimals",
      "outputs": [
        {
          "internalType": "uint8",
          "name": "",
          "type": "uint8"
        }
      ],
      "stateMutability": "view",
      "type": "function"
    },
    {
      "inputs": [
        {
          "internalType": "bytes32",
          "name": "role",
          "type": "bytes32"
        }
      ],
      "name": "getRoleAdmin",
      "outputs": [
        {
          "internalType": "bytes32",
          "name": "",
          "type": "bytes32"
        }
      ],
      "stateMutability": "view",
      "type": "function"
    },
    {
      "inputs": [
        {
          "internalType": "bytes32",
          "name": "role",
          "type": "bytes32"
        },
        {
          "internalType": "address",
          "name": "account",
          "type": "address"
        }
      ],
      "name": "grantRole",
      "outputs": [],
      "stateMutability": "nonpayable",
      "type": "function"
    },
    {
      "inputs": [
        {
          "internalType": "address",
          "name": "_account",
          "type": "address"
        },
        {
          "internalType": "uint128",
          "name": "_amount",
          "type": "uint128"
        }
      ],
      "name": "grantRoleMinter",
      "outputs": [],
      "stateMutability": "nonpayable",
      "type": "function"
    },
    {
      "inputs": [
        {
          "internalType": "bytes32",
          "name": "role",
          "type": "bytes32"
        },
        {
          "internalType": "address",
          "name": "account",
          "type": "address"
        }
      ],
      "name": "hasRole",
      "outputs": [
        {
          "internalType": "bool",
          "name": "",
          "type": "bool"
        }
      ],
      "stateMutability": "view",
      "type": "function"
    },
    {
      "inputs": [
        {
          "internalType": "address",
          "name": "to",
          "type": "address"
        },
        {
          "internalType": "uint128",
          "name": "_amount",
          "type": "uint128"
        }
      ],
      "name": "mint",
      "outputs": [],
      "stateMutability": "nonpayable",
      "type": "function"
    },
    {
      "inputs": [
        {
          "internalType": "address",
          "name": "",
          "type": "address"
        }
      ],
      "name": "mintable_amount",
      "outputs": [
        {
          "internalType": "uint128",
          "name": "",
          "type": "uint128"
        }
      ],
      "stateMutability": "view",
      "type": "function"
    },
    {
      "inputs": [],
      "name": "name",
      "outputs": [
        {
          "internalType": "string",
          "name": "",
          "type": "string"
        }
      ],
      "stateMutability": "view",
      "type": "function"
    },
    {
      "inputs": [
        {
          "internalType": "bytes32",
          "name": "role",
          "type": "bytes32"
        },
        {
          "internalType": "address",
          "name": "callerConfirmation",
          "type": "address"
        }
      ],
      "name": "renounceRole",
      "outputs": [],
      "stateMutability": "nonpayable",
      "type": "function"
    },
    {
      "inputs": [
        {
          "internalType": "bytes32",
          "name": "role",
          "type": "bytes32"
        },
        {
          "internalType": "address",
          "name": "account",
          "type": "address"
        }
      ],
      "name": "revokeRole",
      "outputs": [],
      "stateMutability": "nonpayable",
      "type": "function"
    },
    {
      "inputs": [
        {
          "internalType": "bytes4",
          "name": "interfaceId",
          "type": "bytes4"
        }
      ],
      "name": "supportsInterface",
      "outputs": [
        {
          "internalType": "bool",
          "name": "",
          "type": "bool"
        }
      ],
      "stateMutability": "view",
      "type": "function"
    },
    {
      "inputs": [],
      "name": "symbol",
      "outputs": [
        {
          "internalType": "string",
          "name": "",
          "type": "string"
        }
      ],
      "stateMutability": "view",
      "type": "function"
    },
    {
      "inputs": [],
      "name": "totalSupply",
      "outputs": [
        {
          "internalType": "uint256",
          "name": "",
          "type": "uint256"
        }
      ],
      "stateMutability": "view",
      "type": "function"
    },
    {
      "inputs": [],
      "name": "total_mintable_amount",
      "outputs": [
        {
          "internalType": "uint128",
          "name": "",
          "type": "uint128"
        }
      ],
      "stateMutability": "view",
      "type": "function"
    },
    {
      "inputs": [
        {
          "internalType": "address",
          "name": "to",
          "type": "address"
        },
        {
          "internalType": "uint256",
          "name": "value",
          "type": "uint256"
        }
      ],
      "name": "transfer",
      "outputs": [
        {
          "internalType": "bool",
          "name": "",
          "type": "bool"
        }
      ],
      "stateMutability": "nonpayable",
      "type": "function"
    },
    {
      "inputs": [
        {
          "internalType": "address",
          "name": "from",
          "type": "address"
        },
        {
          "internalType": "address",
          "name": "to",
          "type": "address"
        },
        {
          "internalType": "uint256",
          "name": "value",
          "type": "uint256"
        }
      ],
      "name": "transferFrom",
      "outputs": [
        {
          "internalType": "bool",
          "name": "",
          "type": "bool"
        }
      ],
      "stateMutability": "nonpayable",
      "type": "function"
    }
  ],
  "bytecode": "0x6080604052680340aad21b3b700000600760006101000a8154816fffffffffffffffffffffffffffffffff02191690836fffffffffffffffffffffffffffffffff1602179055503480156200005357600080fd5b506040518060400160405280600581526020017f45636f696e0000000000000000000000000000000000000000000000000000008152506040518060400160405280600381526020017f45434f00000000000000000000000000000000000000000000000000000000008152508160039081620000d1919062000510565b508060049081620000e3919062000510565b505050620001187fdf8b4c520ffe197c5343c6f5aec59570151ef9a492f2c624fd45ddde6135ec42336200011f60201b60201c565b50620005f7565b60006200013383836200022360201b60201c565b620002185760016005600085815260200190815260200160002060000160008473ffffffffffffffffffffffffffffffffffffffff1673ffffffffffffffffffffffffffffffffffffffff16815260200190815260200160002060006101000a81548160ff021916908315150217905550620001b46200028e60201b60201c565b73ffffffffffffffffffffffffffffffffffffffff168273ffffffffffffffffffffffffffffffffffffffff16847f2f8788117e7eff1d82e926ec794901d17c78024a50270940304540a733656f0d60405160405180910390a4600190506200021d565b600090505b92915050565b60006005600084815260200190815260200160002060000160008373ffffffffffffffffffffffffffffffffffffffff1673ffffffffffffffffffffffffffffffffffffffff16815260200190815260200160002060009054906101000a900460ff16905092915050565b600033905090565b600081519050919050565b7f4e487b7100000000000000000000000000000000000000000000000000000000600052604160045260246000fd5b7f4e487b7100000000000000000000000000000000000000000000000000000000600052602260045260246000fd5b600060028204905060018216806200031857607f821691505b6020821081036200032e576200032d620002d0565b5b50919050565b60008190508160005260206000209050919050565b60006020601f8301049050919050565b600082821b905092915050565b600060088302620003987fffffffffffffffffffffffffffffffffffffffffffffffffffffffffffffffff8262000359565b620003a4868362000359565b95508019841693508086168417925050509392505050565b6000819050919050565b6000819050919050565b6000620003f1620003eb620003e584620003bc565b620003c6565b620003bc565b9050919050565b6000819050919050565b6200040d83620003d0565b620004256200041c82620003f8565b84845462000366565b825550505050565b600090565b6200043c6200042d565b6200044981848462000402565b505050565b5b8181101562000471576200046560008262000432565b6001810190506200044f565b5050565b601f821115620004c0576200048a8162000334565b620004958462000349565b81016020851015620004a5578190505b620004bd620004b48562000349565b8301826200044e565b50505b505050565b600082821c905092915050565b6000620004e560001984600802620004c5565b1980831691505092915050565b6000620005008383620004d2565b9150826002028217905092915050565b6200051b8262000296565b67ffffffffffffffff811115620005375762000536620002a1565b5b620005438254620002ff565b6200055082828562000475565b600060209050601f83116001811462000588576000841562000573578287015190505b6200057f8582620004f2565b865550620005ef565b601f198416620005988662000334565b60005b82811015620005c2578489015182556001820191506020850194506020810190506200059b565b86831015620005e25784890151620005de601f891682620004d2565b8355505b6001600288020188555050505b505050505050565b611d8180620006076000396000f3fe608060405234801561001057600080fd5b506004361061014d5760003560e01c8063617e493e116100c3578063a9059cbb1161007c578063a9059cbb146103c8578063bdf86944146103f8578063be29184f14610416578063d547741f14610432578063dd62ed3e1461044e578063fe6d81241461047e5761014d565b8063617e493e146102f257806370a082311461030e578063902d55a51461033e57806391d148541461035c57806395d89b411461038c578063a217fddf146103aa5761014d565b8063248a9ca311610115578063248a9ca31461021e5780632a0acc6a1461024e5780632b3c7ffa1461026c5780632f2ff15d1461029c578063313ce567146102b857806336568abe146102d65761014d565b806301ffc9a71461015257806306fdde0314610182578063095ea7b3146101a057806318160ddd146101d057806323b872dd146101ee575b600080fd5b61016c60048036038101906101679190611662565b61049c565b60405161017991906116aa565b60405180910390f35b61018a610516565b6040516101979190611755565b60405180910390f35b6101ba60048036038101906101b5919061180b565b6105a8565b6040516101c791906116aa565b60405180910390f35b6101d86105cb565b6040516101e5919061185a565b60405180910390f35b61020860048036038101906102039190611875565b6105d5565b60405161021591906116aa565b60405180910390f35b610238600480360381019061023391906118fe565b610604565b604051610245919061193a565b60405180910390f35b610256610624565b604051610263919061193a565b60405180910390f35b61028660048036038101906102819190611955565b610648565b60405161029391906119ad565b60405180910390f35b6102b660048036038101906102b191906119c8565b610677565b005b6102c0610699565b6040516102cd9190611a24565b60405180910390f35b6102f060048036038101906102eb91906119c8565b6106a2565b005b61030c60048036038101906103079190611a6b565b61071d565b005b61032860048036038101906103239190611955565b610900565b604051610335919061185a565b60405180910390f35b610346610948565b60405161035391906119ad565b60405180910390f35b610376600480360381019061037191906119c8565b610955565b60405161038391906116aa565b60405180910390f35b6103946109c0565b6040516103a19190611755565b60405180910390f35b6103b2610a52565b6040516103bf919061193a565b60405180910390f35b6103e260048036038101906103dd919061180b565b610a59565b6040516103ef91906116aa565b60405180910390f35b610400610a7c565b60405161040d91906119ad565b60405180910390f35b610430600480360381019061042b9190611a6b565b610a9e565b005b61044c600480360381019061044791906119c8565b610c64565b005b61046860048036038101906104639190611aab565b610c86565b604051610475919061185a565b60405180910390f35b610486610d0d565b604051610493919061193a565b60405180910390f35b60007f7965db0b000000000000000000000000000000000000000000000000000000007bffffffffffffffffffffffffffffffffffffffffffffffffffffffff1916827bffffffffffffffffffffffffffffffffffffffffffffffffffffffff1916148061050f575061050e82610d31565b5b9050919050565b60606003805461052590611b1a565b80601f016020809104026020016040519081016040528092919081815260200182805461055190611b1a565b801561059e5780601f106105735761010080835404028352916020019161059e565b820191906000526020600020905b81548152906001019060200180831161058157829003601f168201915b5050505050905090565b6000806105b3610d9b565b90506105c0818585610da3565b600191505092915050565b6000600254905090565b6000806105e0610d9b565b90506105ed858285610db5565b6105f8858585610e49565b60019150509392505050565b600060056000838152602001908152602001600020600101549050919050565b7fdf8b4c520ffe197c5343c6f5aec59570151ef9a492f2c624fd45ddde6135ec4281565b60066020528060005260406000206000915054906101000a90046fffffffffffffffffffffffffffffffff1681565b61068082610604565b61068981610f3d565b6106938383610f51565b50505050565b60006012905090565b6106aa610d9b565b73ffffffffffffffffffffffffffffffffffffffff168173ffffffffffffffffffffffffffffffffffffffff161461070e576040517f6697b23200000000000000000000000000000000000000000000000000000000815260040160405180910390fd5b6107188282611043565b505050565b7fdf8b4c520ffe197c5343c6f5aec59570151ef9a492f2c624fd45ddde6135ec4261074781610f3d565b6000670de0b6b3a76400008361075d9190611b7a565b9050806fffffffffffffffffffffffffffffffff16600760009054906101000a90046fffffffffffffffffffffffffffffffff166fffffffffffffffffffffffffffffffff1611156107ae57600080fd5b600081600760009054906101000a90046fffffffffffffffffffffffffffffffff166107da9190611bb7565b6fffffffffffffffffffffffffffffffff16116107f657600080fd5b80600760008282829054906101000a90046fffffffffffffffffffffffffffffffff166108239190611bb7565b92506101000a8154816fffffffffffffffffffffffffffffffff02191690836fffffffffffffffffffffffffffffffff16021790555080600660008673ffffffffffffffffffffffffffffffffffffffff1673ffffffffffffffffffffffffffffffffffffffff16815260200190815260200160002060006101000a8154816fffffffffffffffffffffffffffffffff02191690836fffffffffffffffffffffffffffffffff1602179055506108f97ff0887ba65ee2024ea881d91b74c2450ef19e1557f03bed3ea9f16b037cbe2dc985610f51565b5050505050565b60008060008373ffffffffffffffffffffffffffffffffffffffff1673ffffffffffffffffffffffffffffffffffffffff168152602001908152602001600020549050919050565b680340aad21b3b70000081565b60006005600084815260200190815260200160002060000160008373ffffffffffffffffffffffffffffffffffffffff1673ffffffffffffffffffffffffffffffffffffffff16815260200190815260200160002060009054906101000a900460ff16905092915050565b6060600480546109cf90611b1a565b80601f01602080910402602001604051908101604052809291908181526020018280546109fb90611b1a565b8015610a485780601f10610a1d57610100808354040283529160200191610a48565b820191906000526020600020905b815481529060010190602001808311610a2b57829003601f168201915b5050505050905090565b6000801b81565b600080610a64610d9b565b9050610a71818585610e49565b600191505092915050565b600760009054906101000a90046fffffffffffffffffffffffffffffffff1681565b7ff0887ba65ee2024ea881d91b74c2450ef19e1557f03bed3ea9f16b037cbe2dc9610ac881610f3d565b6000670de0b6b3a764000083610ade9190611b7a565b9050600660008573ffffffffffffffffffffffffffffffffffffffff1673ffffffffffffffffffffffffffffffffffffffff16815260200190815260200160002060009054906101000a90046fffffffffffffffffffffffffffffffff166fffffffffffffffffffffffffffffffff16816fffffffffffffffffffffffffffffffff161115610ba2576040517f08c379a0000000000000000000000000000000000000000000000000000000008152600401610b9990611c6d565b60405180910390fd5b80600660008673ffffffffffffffffffffffffffffffffffffffff1673ffffffffffffffffffffffffffffffffffffffff16815260200190815260200160002060008282829054906101000a90046fffffffffffffffffffffffffffffffff16610c0c9190611bb7565b92506101000a8154816fffffffffffffffffffffffffffffffff02191690836fffffffffffffffffffffffffffffffff160217905550610c5e84826fffffffffffffffffffffffffffffffff16611136565b50505050565b610c6d82610604565b610c7681610f3d565b610c808383611043565b50505050565b6000600160008473ffffffffffffffffffffffffffffffffffffffff1673ffffffffffffffffffffffffffffffffffffffff16815260200190815260200160002060008373ffffffffffffffffffffffffffffffffffffffff1673ffffffffffffffffffffffffffffffffffffffff16815260200190815260200160002054905092915050565b7ff0887ba65ee2024ea881d91b74c2450ef19e1557f03bed3ea9f16b037cbe2dc981565b60007f01ffc9a7000000000000000000000000000000000000000000000000000000007bffffffffffffffffffffffffffffffffffffffffffffffffffffffff1916827bffffffffffffffffffffffffffffffffffffffffffffffffffffffff1916149050919050565b600033905090565b610db083838360016111b8565b505050565b6000610dc18484610c86565b90507fffffffffffffffffffffffffffffffffffffffffffffffffffffffffffffffff8114610e435781811015610e33578281836040517ffb8f41b2000000000000000000000000000000000000000000000000000000008152600401610e2a93929190611c9c565b60405180910390fd5b610e42848484840360006111b8565b5b50505050565b600073ffffffffffffffffffffffffffffffffffffffff168373ffffffffffffffffffffffffffffffffffffffff1603610ebb5760006040517f96c6fd1e000000000000000000000000000000000000000000000000000000008152600401610eb29190611cd3565b60405180910390fd5b600073ffffffffffffffffffffffffffffffffffffffff168273ffffffffffffffffffffffffffffffffffffffff1603610f2d5760006040517fec442f05000000000000000000000000000000000000000000000000000000008152600401610f249190611cd3565b60405180910390fd5b610f3883838361138f565b505050565b610f4e81610f49610d9b565b6115b4565b50565b6000610f5d8383610955565b6110385760016005600085815260200190815260200160002060000160008473ffffffffffffffffffffffffffffffffffffffff1673ffffffffffffffffffffffffffffffffffffffff16815260200190815260200160002060006101000a81548160ff021916908315150217905550610fd5610d9b565b73ffffffffffffffffffffffffffffffffffffffff168273ffffffffffffffffffffffffffffffffffffffff16847f2f8788117e7eff1d82e926ec794901d17c78024a50270940304540a733656f0d60405160405180910390a46001905061103d565b600090505b92915050565b600061104f8383610955565b1561112b5760006005600085815260200190815260200160002060000160008473ffffffffffffffffffffffffffffffffffffffff1673ffffffffffffffffffffffffffffffffffffffff16815260200190815260200160002060006101000a81548160ff0219169083151502179055506110c8610d9b565b73ffffffffffffffffffffffffffffffffffffffff168273ffffffffffffffffffffffffffffffffffffffff16847ff6391f5c32d9c69d2a47ea670b442974b53935d1edc7fd64eb21e047a839171b60405160405180910390a460019050611130565b600090505b92915050565b600073ffffffffffffffffffffffffffffffffffffffff168273ffffffffffffffffffffffffffffffffffffffff16036111a85760006040517fec442f0500000000000000000000000000000000000000000000000000000000815260040161119f9190611cd3565b60405180910390fd5b6111b46000838361138f565b5050565b600073ffffffffffffffffffffffffffffffffffffffff168473ffffffffffffffffffffffffffffffffffffffff160361122a5760006040517fe602df050000000000000000000000000000000000000000000000000000000081526004016112219190611cd3565b60405180910390fd5b600073ffffffffffffffffffffffffffffffffffffffff168373ffffffffffffffffffffffffffffffffffffffff160361129c5760006040517f94280d620000000000000000000000000000000000000000000000000000000081526004016112939190611cd3565b60405180910390fd5b81600160008673ffffffffffffffffffffffffffffffffffffffff1673ffffffffffffffffffffffffffffffffffffffff16815260200190815260200160002060008573ffffffffffffffffffffffffffffffffffffffff1673ffffffffffffffffffffffffffffffffffffffff168152602001908152602001600020819055508015611389578273ffffffffffffffffffffffffffffffffffffffff168473ffffffffffffffffffffffffffffffffffffffff167f8c5be1e5ebec7d5bd14f71427d1e84f3dd0314c0f7b2291e5b200ac8c7c3b92584604051611380919061185a565b60405180910390a35b50505050565b600073ffffffffffffffffffffffffffffffffffffffff168373ffffffffffffffffffffffffffffffffffffffff16036113e15780600260008282546113d59190611cee565b925050819055506114b4565b60008060008573ffffffffffffffffffffffffffffffffffffffff1673ffffffffffffffffffffffffffffffffffffffff1681526020019081526020016000205490508181101561146d578381836040517fe450d38c00000000000000000000000000000000000000000000000000000000815260040161146493929190611c9c565b60405180910390fd5b8181036000808673ffffffffffffffffffffffffffffffffffffffff1673ffffffffffffffffffffffffffffffffffffffff16815260200190815260200160002081905550505b600073ffffffffffffffffffffffffffffffffffffffff168273ffffffffffffffffffffffffffffffffffffffff16036114fd578060026000828254039250508190555061154a565b806000808473ffffffffffffffffffffffffffffffffffffffff1673ffffffffffffffffffffffffffffffffffffffff168152602001908152602001600020600082825401925050819055505b8173ffffffffffffffffffffffffffffffffffffffff168373ffffffffffffffffffffffffffffffffffffffff167fddf252ad1be2c89b69c2b068fc378daa952ba7f163c4a11628f55a4df523b3ef836040516115a7919061185a565b60405180910390a3505050565b6115be8282610955565b6116015780826040517fe2517d3f0000000000000000000000000000000000000000000000000000000081526004016115f8929190611d22565b60405180910390fd5b5050565b600080fd5b60007fffffffff0000000000000000000000000000000000000000000000000000000082169050919050565b61163f8161160a565b811461164a57600080fd5b50565b60008135905061165c81611636565b92915050565b60006020828403121561167857611677611605565b5b60006116868482850161164d565b91505092915050565b60008115159050919050565b6116a48161168f565b82525050565b60006020820190506116bf600083018461169b565b92915050565b600081519050919050565b600082825260208201905092915050565b60005b838110156116ff5780820151818401526020810190506116e4565b60008484015250505050565b6000601f19601f8301169050919050565b6000611727826116c5565b61173181856116d0565b93506117418185602086016116e1565b61174a8161170b565b840191505092915050565b6000602082019050818103600083015261176f818461171c565b905092915050565b600073ffffffffffffffffffffffffffffffffffffffff82169050919050565b60006117a282611777565b9050919050565b6117b281611797565b81146117bd57600080fd5b50565b6000813590506117cf816117a9565b92915050565b6000819050919050565b6117e8816117d5565b81146117f357600080fd5b50565b600081359050611805816117df565b92915050565b6000806040838503121561182257611821611605565b5b6000611830858286016117c0565b9250506020611841858286016117f6565b9150509250929050565b611854816117d5565b82525050565b600060208201905061186f600083018461184b565b92915050565b60008060006060848603121561188e5761188d611605565b5b600061189c868287016117c0565b93505060206118ad868287016117c0565b92505060406118be868287016117f6565b9150509250925092565b6000819050919050565b6118db816118c8565b81146118e657600080fd5b50565b6000813590506118f8816118d2565b92915050565b60006020828403121561191457611913611605565b5b6000611922848285016118e9565b91505092915050565b611934816118c8565b82525050565b600060208201905061194f600083018461192b565b92915050565b60006020828403121561196b5761196a611605565b5b6000611979848285016117c0565b91505092915050565b60006fffffffffffffffffffffffffffffffff82169050919050565b6119a781611982565b82525050565b60006020820190506119c2600083018461199e565b92915050565b600080604083850312156119df576119de611605565b5b60006119ed858286016118e9565b92505060206119fe858286016117c0565b9150509250929050565b600060ff82169050919050565b611a1e81611a08565b82525050565b6000602082019050611a396000830184611a15565b92915050565b611a4881611982565b8114611a5357600080fd5b50565b600081359050611a6581611a3f565b92915050565b60008060408385031215611a8257611a81611605565b5b6000611a90858286016117c0565b9250506020611aa185828601611a56565b9150509250929050565b60008060408385031215611ac257611ac1611605565b5b6000611ad0858286016117c0565b9250506020611ae1858286016117c0565b9150509250929050565b7f4e487b7100000000000000000000000000000000000000000000000000000000600052602260045260246000fd5b60006002820490506001821680611b3257607f821691505b602082108103611b4557611b44611aeb565b5b50919050565b7f4e487b7100000000000000000000000000000000000000000000000000000000600052601160045260246000fd5b6000611b8582611982565b9150611b9083611982565b9250828202611b9e81611982565b9150808214611bb057611baf611b4b565b5b5092915050565b6000611bc282611982565b9150611bcd83611982565b925082820390506fffffffffffffffffffffffffffffffff811115611bf557611bf4611b4b565b5b92915050565b7f596f752068617665206d6f7265206f6666657273207468616e20796f7520636160008201527f6e206d696e742e00000000000000000000000000000000000000000000000000602082015250565b6000611c576027836116d0565b9150611c6282611bfb565b604082019050919050565b60006020820190508181036000830152611c8681611c4a565b9050919050565b611c9681611797565b82525050565b6000606082019050611cb16000830186611c8d565b611cbe602083018561184b565b611ccb604083018461184b565b949350505050565b6000602082019050611ce86000830184611c8d565b92915050565b6000611cf9826117d5565b9150611d04836117d5565b9250828201905080821115611d1c57611d1b611b4b565b5b92915050565b6000604082019050611d376000830185611c8d565b611d44602083018461192b565b939250505056fea2646970667358221220136bbab8c3be424b835d38ae55de3df37b298896054f3174a7935e69688a063a64736f6c63430008140033",
  "linkReferences": {},
  "deployedLinkReferences": {}
}